:100000000C9438000C9455000C9455000C94550039
:100010000C9455000C9455000C9455000C9455000C
:100020000C9455000C9455000C9455000C945500FC
:100030000C9455000C9455000C9455000C945500EC
:100040000C9455000C9455000C9455000C945500DC
:100050000C9455000C9455000C9455000C945500CC
:100060000C9455000C9455000C9455000C945500BC
:1000700011241FBECFEFD4E0DEBFCDBF11E0A0E062
:10008000B1E0ECE1FCE002C005900D92AA3BB107A3
:10009000D9F721E0AAEBB1E001C01D92A63CB2075E
:1000A000E1F70E944C010C940C060C940000809324
:1000B000001481E48A95F1F700C08091001408953E
:1000C0005D9BFECF8CB981E090E008955F9BFECFF1
:1000D0008CB190E0089510BC8FE189B98AB1886134
:1000E0008AB980B5866880BD66E670E080E690E0FB
:1000F0000E94DB02089587E00E9457008093BA01B6
:1001000086E00E9457008093BB01089585B7806800
:1001100085BF0E947B000895823069F028F488230F
:1001200079F0813021F00BC0853048F409C084E0BB
:100130000E945700089585E00E9457000895089591
:1001400080E00895FF920F931F93CF93DF9387E092
:100150000E945700C82F86E00E945700482F209128
:10016000BA0130E0E091BB01F0E06C2F70E0621B5F
:10017000730B0F2EF4E6FF2EF02DF69EC001F79EB6
:10018000900D1124CFEFD0E0BE01621B730B0E94D3
:100190008C018B0150E04E1B5F0BF49EC001F59E5D
:1001A000900D1124BE016E1B7F0B0E948C019B01E0
:1001B000C901B801DF91CF911F910F91FF90089570
:1001C0000E94A200DC01AC01992324F444275527A6
:1001D000481B590B262F372F33231CF431952195BB
:1001E0003109F901241735070CF49A01243131053E
:1001F00074F04E175F0734F4872F8095881F882787
:10020000881F08951A161B0624F482E0089584E0DE
:10021000089583E00895CF93C82F8AE090E00E946C
:10022000B401C23059F028F4CC2319F1C130C1F027
:1002300031C0C33061F0C43029F12CC02AE0E6E0BF
:10024000F1E0DC0101900D922A95E1F723C02AE04C
:10025000E9E0F1E0DC0101900D922A95E1F71AC086
:100260002AE0EEE0F1E0DC0101900D922A95E1F741
:1002700011C02AE0E4E1F1E0DC0101900D922A9541
:10028000E1F708C02AE0E9E1F1E0DC0101900D921C
:100290002A95E1F7CF9108950E946B000E94860095
:1002A000C8E8D1E00E94A200F62EE72ED82EC92E73
:1002B0000E94E000182F81E00E948C00B82E82E09E
:1002C0000E948C00A82E812F0E940B01082F192F4D
:1002D0001F92AF921F92BF929F938F93CF92DF9204
:1002E000EF92FF92DF93CF930E942603802F912FEE
:1002F0000E944C029FEF2FE787E091502040804002
:10030000E1F700C000008DB79EB70C960FB6F894C9
:100310009EBF0FBE8DBFC6CF97FB072E16F400946D
:1003200007D077FD09D00E94A00107FC05D03EF45C
:10033000909581959F4F0895709561957F4F089591
:10034000AA1BBB1B51E107C0AA1FBB1FA617B707FB
:1003500010F0A61BB70B881F991F5A95A9F7809517
:100360009095BC01CD010895CF93DF938230910524
:1003700010F482E090E0E091BE01F091BF0120E036
:1003800030E0A0E0B0E0309739F14081518148176A
:100390005907B8F04817590771F482819381109773
:1003A00029F013969C938E9312972CC09093BF01C3
:1003B0008093BE0127C02115310531F04217530744
:1003C00018F0A901DB0101C0EF019A01BD01DF01B5
:1003D0000280F381E02DD7CF21153105F9F0281BDC
:1003E000390B2430310580F48A819B8161157105B8
:1003F00021F0FB019383828304C09093BF0180931B
:10040000BE01FE01329644C0FE01E20FF31F81934C
:10041000919322503109398328833AC02091BC013D
:100420003091BD01232B41F4209102013091030151
:100430003093BD012093BC01209100013091010156
:100440002115310541F42DB73EB74091040150917B
:100450000501241B350BE091BC01F091BD01E217B1
:10046000F307A0F42E1B3F0B2817390778F0AC01D7
:100470004E5F5F4F2417350748F04E0F5F1F5093B4
:10048000BD014093BC018193919302C0E0E0F0E094
:10049000CF01DF91CF910895CF93DF93009709F4B7
:1004A00087C0FC01329713821282C091BE01D091A5
:1004B000BF01209781F420813181280F391F80915D
:1004C000BC019091BD018217930779F5F093BD01AE
:1004D000E093BC016DC0DE0120E030E0AE17BF0745
:1004E00050F412964D915C9113979D014115510561
:1004F00009F1DA01F3CFB383A28340815181840FE4
:10050000951F8A179B0771F48D919C911197840F09
:10051000951F02969183808312968D919C911397DB
:10052000938382832115310529F4F093BF01E09371
:10053000BE013EC0D9011396FC93EE9312974D91E4
:100540005D91A40FB51FEA17FB0779F480819181B3
:10055000840F951F0296D90111969C938E938281E8
:10056000938113969C938E931297E0E0F0E08A813A
:100570009B81009719F0FE01EC01F9CFCE010296A4
:1005800028813981820F931F2091BC013091BD01D8
:100590002817390769F4309729F41092BF01109297
:1005A000BE0102C013821282D093BD01C093BC0170
:1005B000DF91CF9108950F931F93CF93DF93EC01B9
:1005C0008B01009731F46115710519F480E090E01A
:1005D00038C06EE070E081E090E00E940C05FC0104
:1005E0000097A1F380E883830115110571F013874B
:1005F000028781E883838091C0019091C101892B9A
:1006000021F4F093C101E093C0012097C9F0D18794
:10061000C0878381826083838091C2019091C301EE
:10062000892B71F4F093C301E093C2018091C4015E
:100630009091C501892B21F4F093C501E093C40189
:10064000CF01DF91CF911F910F910895A0E0B0E00D
:10065000ECE2F3E00C94E505FE01359661917191B1
:10066000AF018091C2019091C3010E943A03E2E080
:100670000C940106ACE0B0E0E0E4F3E00C94D505A6
:100680007C016B018A01FC0117821682838181FF44
:10069000BDC1CE0101964C01F7019381F60193FD96
:1006A000859193FF81916F01882309F4ABC1853255
:1006B00039F493FD859193FF81916F01853229F47F
:1006C000B70190E00E944505E7CF512C312C20E086
:1006D0002032A0F48B3269F030F4803259F083324A
:1006E00069F420612CC08D3239F0803339F42160F7
:1006F00026C02260246023C0286021C027FD27C0B7
:1007000030ED380F3A3078F426FF06C0FAE05F9EED
:10071000300D1124532E13C08AE0389E300D112461
:10072000332E20620CC08E3221F426FD6BC1206472
:1007300006C08C3611F4206802C0883641F4F601F8
:1007400093FD859193FF81916F018111C1CF982F06
:100750009F7D9554933028F40C5F1F4FFFE3F9837E
:100760000DC0833631F0833771F0833509F05BC0FB
:1007700022C0F801808189830E5F1F4F4424439477
:10078000512C540115C03801F2E06F0E711CF801B4
:10079000A080B18026FF03C0652D70E002C06FEF1E
:1007A0007FEFC5012C870E943A052C0183012C851F
:1007B0002F77222E17C03801F2E06F0E711CF8015E
:1007C000A080B18026FF03C0652D70E002C06FEFEE
:1007D0007FEFC5012C870E9428052C012C852068FD
:1007E000222E830123FC1BC0832D90E0481659065E
:1007F000B0F4B70180E290E00E9445053A94F4CF4E
:10080000F50127FC859127FE81915F01B70190E0FA
:100810000E94450531103A94F1E04F1A51084114F5
:10082000510471F7E5C0843611F0893639F5F801C5
:1008300027FF07C060817181828193810C5F1F4F08
:1008400008C060817181882777FD8095982F0E5FA1
:100850001F4F2F76B22E97FF09C090958095709507
:1008600061957F4F8F4F9F4F2068B22E2AE030E076
:10087000A4010E947705A82EA81844C0853729F442
:100880002F7EB22E2AE030E025C0F22FF97FBF2E56
:100890008F36C1F018F4883579F0B4C0803719F07C
:1008A000883721F0AFC02F2F2061B22EB4FE0DC0CB
:1008B0008B2D8460B82E09C024FF0AC09F2F96603C
:1008C000B92E06C028E030E005C020E130E002C0CB
:1008D00020E132E0F801B7FE07C0608171818281BA
:1008E00093810C5F1F4F06C06081718180E090E0B2
:1008F0000E5F1F4FA4010E947705A82EA818FB2D9C
:10090000FF77BF2EB6FE0BC02B2D2E7FA51450F403
:10091000B4FE0AC0B2FC08C02B2D2E7E05C07A2C76
:100920002B2D03C07A2C01C0752C24FF0DC0FE01B5
:10093000EA0DF11D8081803311F4297E09C022FF68
:1009400006C07394739404C0822F867809F0739460
:1009500023FD13C020FF06C05A2C731418F4530C47
:100960005718732C731468F4B70180E290E02C8759
:100970000E94450573942C85F5CF731410F4371835
:1009800001C0312C24FF12C0B70180E390E02C8716
:100990000E9445052C8522FF17C021FF03C088E572
:1009A00090E002C088E790E0B7010CC0822F867803
:1009B00059F021FD02C080E201C08BE227FD8DE2EB
:1009C000B70190E00E944505A51438F4B70180E313
:1009D00090E00E9445055A94F7CFAA94F401EA0DDD
:1009E000F11D8081B70190E00E944505A110F5CF6F
:1009F000332009F451CEB70180E290E00E94450512
:100A00003A94F6CFF7018681978102C08FEF9FEF6E
:100A10002C96E2E10C94F1050F931F93CF93DF9393
:100A2000869F8001879F100D969F100D1124C8018D
:100A30000E94B401EC01009729F0A80160E070E089
:100A40000E943305CE01DF91CF911F910F91089540
:100A5000FC010590615070400110D8F78095909589
:100A60008E0F9F1F0895DC0101C06D9341505040CF
:100A7000E0F70895FC016150704001900110D8F733
:100A8000809590958E0F9F1F08950F931F93CF937E
:100A9000DF93182F092FEB018B8181FD03C08FEFAE
:100AA0009FEF20C082FF10C04E815F812C813D816D
:100AB000421753077CF4E881F9819F012F5F3F4F74
:100AC00039832883108306C0E885F985812F09952D
:100AD000892B29F72E813F812F5F3F4F3F832E8344
:100AE000812F902FDF91CF911F910F910895FA01DF
:100AF000AA27283051F1203181F1E8946F936E7F5D
:100B00006E5F7F4F8F4F9F4FAF4FB1E03ED0B4E04D
:100B10003CD0670F781F891F9A1FA11D680F791F8E
:100B20008A1F911DA11D6A0F711D811D911DA11D9F
:100B300020D009F468943F912AE0269F11243019AF
:100B4000305D3193DEF6CF010895462F4770405D4A
:100B50004193B3E00FD0C9F7F6CF462F4F70405DF9
:100B60004A3318F0495D31FD4052419302D0A9F754
:100B7000EACFB4E0A6959795879577956795BA954E
:100B8000C9F700976105710508959B01AC010A2E14
:100B900006945795479537952795BA95C9F7620FEB
:100BA000731F841F951FA01D08952F923F924F928F
:100BB0005F926F927F928F929F92AF92BF92CF92ED
:100BC000DF92EF92FF920F931F93CF93DF93CDB7F6
:100BD000DEB7CA1BDB0B0FB6F894DEBF0FBECDBF6E
:100BE00009942A88398848885F846E847D848C843F
:100BF0009B84AA84B984C884DF80EE80FD800C8148
:100C00001B81AA81B981CE0FD11D0FB6F894DEBF2A
:0C0C10000FBECDBFED010895F894FFCF9A
:100C1C000000C6012000557000446F776E005269C9
:100C2C00676874004C656674004E65757472616C0F
:100C3C00005374617274696E67205352414D207475
:100C4C006573742E2E2E0D005352414D2074657316
:100C5C007420636F6D706C6574656420776974685B
:100C6C00202564206572726F727320696E20777212
:100C7C0069746520706861736520616E64202564F9
:100C8C00206572726F727320696E207265616420C8
:100C9C0070686173650D0A00506F736974696F6ECB
:100CAC002025643A2564202F204469726563746999
:100CBC006F6E3A202573202F20536C696465727314
:0A0CCC003A2025643A25640A00006E
:00000001FF
